{
    "_format": "hh-sol-artifact-1",
    "contractName": "votechainApp",
    "sourceName": "contracts/VoteChain.sol",
    "abi": [
        {
            "inputs": [
                {
                    "internalType": "string",
                    "name": "name",
                    "type": "string"
                },
                {
                    "internalType": "string",
                    "name": "party",
                    "type": "string"
                },
                {
                    "internalType": "string",
                    "name": "qualification",
                    "type": "string"
                },
                {
                    "internalType": "uint256",
                    "name": "age",
                    "type": "uint256"
                },
                {
                    "internalType": "string",
                    "name": "link",
                    "type": "string"
                }
            ],
            "name": "addCandidate",
            "outputs": [],
            "stateMutability": "nonpayable",
            "type": "function"
        },
        {
            "inputs": [
                {
                    "internalType": "uint256",
                    "name": "",
                    "type": "uint256"
                }
            ],
            "name": "candidates",
            "outputs": [
                {
                    "internalType": "string",
                    "name": "name",
                    "type": "string"
                },
                {
                    "internalType": "string",
                    "name": "party",
                    "type": "string"
                },
                {
                    "internalType": "string",
                    "name": "qualification",
                    "type": "string"
                },
                {
                    "internalType": "uint256",
                    "name": "age",
                    "type": "uint256"
                },
                {
                    "internalType": "string",
                    "name": "link",
                    "type": "string"
                },
                {
                    "internalType": "uint256",
                    "name": "voteCount",
                    "type": "uint256"
                }
            ],
            "stateMutability": "view",
            "type": "function"
        },
        {
            "inputs": [
                {
                    "internalType": "string",
                    "name": "state",
                    "type": "string"
                }
            ],
            "name": "changeState",
            "outputs": [],
            "stateMutability": "nonpayable",
            "type": "function"
        },
        {
            "inputs": [
                {
                    "internalType": "string",
                    "name": "a",
                    "type": "string"
                },
                {
                    "internalType": "string",
                    "name": "b",
                    "type": "string"
                }
            ],
            "name": "compareStrings",
            "outputs": [
                {
                    "internalType": "bool",
                    "name": "",
                    "type": "bool"
                }
            ],
            "stateMutability": "pure",
            "type": "function"
        },
        {
            "inputs": [],
            "name": "owner",
            "outputs": [
                {
                    "internalType": "address",
                    "name": "",
                    "type": "address"
                }
            ],
            "stateMutability": "view",
            "type": "function"
        },
        {
            "inputs": [
                {
                    "internalType": "address",
                    "name": "admin",
                    "type": "address"
                }
            ],
            "name": "setOwner",
            "outputs": [],
            "stateMutability": "nonpayable",
            "type": "function"
        },
        {
            "inputs": [
                {
                    "internalType": "string",
                    "name": "username",
                    "type": "string"
                },
                {
                    "internalType": "string",
                    "name": "email",
                    "type": "string"
                },
                {
                    "internalType": "string",
                    "name": "password",
                    "type": "string"
                }
            ],
            "name": "signUp",
            "outputs": [],
            "stateMutability": "nonpayable",
            "type": "function"
        },
        {
            "inputs": [],
            "name": "totalVotes",
            "outputs": [
                {
                    "internalType": "uint256",
                    "name": "",
                    "type": "uint256"
                }
            ],
            "stateMutability": "view",
            "type": "function"
        },
        {
            "inputs": [
                {
                    "internalType": "uint256",
                    "name": "aadharNo",
                    "type": "uint256"
                },
                {
                    "internalType": "uint256",
                    "name": "age",
                    "type": "uint256"
                }
            ],
            "name": "verify",
            "outputs": [],
            "stateMutability": "view",
            "type": "function"
        },
        {
            "inputs": [
                {
                    "internalType": "uint256",
                    "name": "candidateNo",
                    "type": "uint256"
                }
            ],
            "name": "vote",
            "outputs": [],
            "stateMutability": "nonpayable",
            "type": "function"
        },
        {
            "inputs": [
                {
                    "internalType": "address",
                    "name": "",
                    "type": "address"
                }
            ],
            "name": "voters",
            "outputs": [
                {
                    "internalType": "string",
                    "name": "username",
                    "type": "string"
                },
                {
                    "internalType": "string",
                    "name": "email",
                    "type": "string"
                },
                {
                    "internalType": "string",
                    "name": "password",
                    "type": "string"
                },
                {
                    "internalType": "bool",
                    "name": "authorized",
                    "type": "bool"
                },
                {
                    "internalType": "bool",
                    "name": "voted",
                    "type": "bool"
                },
                {
                    "internalType": "uint256",
                    "name": "aadhar",
                    "type": "uint256"
                }
            ],
            "stateMutability": "view",
            "type": "function"
        }
    ],
    "bytecode": "0x6080604052600060035534801561001557600080fd5b50611949806100256000396000f3fe608060405234801561001057600080fd5b50600436106100a95760003560e01c806341161b101161007157806341161b10146101555780638da5cb5b14610171578063a3ec138d1461018f578063bed34bba146101c4578063cb2b6f14146101f4578063d59f9bcf14610210576100a9565b80630121b93f146100ae5780630d15fd77146100ca57806313af4035146100e85780633477ee2e146101045780633b430faa14610139575b600080fd5b6100c860048036038101906100c391906110ce565b61022c565b005b6100d261037d565b6040516100df919061110a565b60405180910390f35b61010260048036038101906100fd9190611183565b610383565b005b61011e600480360381019061011991906110ce565b6103c7565b60405161013096959493929190611249565b60405180910390f35b610153600480360381019061014e91906113fb565b610623565b005b61016f600480360381019061016a9190611444565b6107a9565b005b61017961095d565b6040516101869190611493565b60405180910390f35b6101a960048036038101906101a49190611183565b610983565b6040516101bb969594939291906114c9565b60405180910390f35b6101de60048036038101906101d9919061153f565b610b71565b6040516101eb91906115b7565b60405180910390f35b61020e600480360381019061020991906115d2565b610bca565b005b61022a60048036038101906102259190611679565b610e8b565b005b600560003373ffffffffffffffffffffffffffffffffffffffff1673ffffffffffffffffffffffffffffffffffffffff16815260200190815260200160002060030160009054906101000a900460ff1661028557600080fd5b600560003373ffffffffffffffffffffffffffffffffffffffff1673ffffffffffffffffffffffffffffffffffffffff16815260200190815260200160002060030160019054906101000a900460ff16156102df57600080fd5b60011515600560003373ffffffffffffffffffffffffffffffffffffffff1673ffffffffffffffffffffffffffffffffffffffff16815260200190815260200160002060030160019054906101000a9050505060016006600083815260200190815260200160002060050160008282546103599190611793565b925050819055506001600260008282546103739190611793565b9250508190555050565b60025481565b80600160006101000a81548173ffffffffffffffffffffffffffffffffffffffff021916908373ffffffffffffffffffffffffffffffffffffffff16021790555050565b60066020528060005260406000206000915090508060000180546103ea90611818565b80601f016020809104026020016040519081016040528092919081815260200182805461041690611818565b80156104635780601f1061043857610100808354040283529160200191610463565b820191906000526020600020905b81548152906001019060200180831161044657829003601f168201915b50505050509080600101805461047890611818565b80601f01602080910402602001604051908101604052809291908181526020018280546104a490611818565b80156104f15780601f106104c6576101008083540402835291602001916104f1565b820191906000526020600020905b8154815290600101906020018083116104d457829003601f168201915b50505050509080600201805461050690611818565b80601f016020809104026020016040519081016040528092919081815260200182805461053290611818565b801561057f5780601f106105545761010080835404028352916020019161057f565b820191906000526020600020905b81548152906001019060200180831161056257829003601f168201915b50505050509080600301549080600401805461059a90611818565b80601f01602080910402602001604051908101604052809291908181526020018280546105c690611818565b80156106135780601f106105e857610100808354040283529160200191610613565b820191906000526020600020905b8154815290600101906020018083116105f657829003601f168201915b5050505050908060050154905086565b600160009054906101000a900473ffffffffffffffffffffffffffffffffffffffff1673ffffffffffffffffffffffffffffffffffffffff163373ffffffffffffffffffffffffffffffffffffffff161461067d57600080fd5b6106bc816040518060400160405280600c81526020017f526567697374726174696f6e0000000000000000000000000000000000000000815250610b71565b1561078f576000600381905550600060028190555060005b60048054905081101561078d57600060056000600484815481106106fb576106fa611849565b5b9060005260206000200160009054906101000a900473ffffffffffffffffffffffffffffffffffffffff1673ffffffffffffffffffffffffffffffffffffffff1673ffffffffffffffffffffffffffffffffffffffff16815260200190815260200160002060030160016101000a81548160ff021916908315150217905550808061078590611878565b9150506106d4565b505b80600090805190602001906107a5929190610fe1565b5050565b600560003373ffffffffffffffffffffffffffffffffffffffff1673ffffffffffffffffffffffffffffffffffffffff16815260200190815260200160002060030160009054906101000a900460ff161561080357600080fd5b60005b6004805490508110156108b35782600560006004848154811061082c5761082b611849565b5b9060005260206000200160009054906101000a900473ffffffffffffffffffffffffffffffffffffffff1673ffffffffffffffffffffffffffffffffffffffff1673ffffffffffffffffffffffffffffffffffffffff16815260200190815260200160002060040154036108a05750610959565b80806108ab90611878565b915050610806565b5060128111156109575781600560003373ffffffffffffffffffffffffffffffffffffffff1673ffffffffffffffffffffffffffffffffffffffff168152602001908152602001600020505060011515600560003373ffffffffffffffffffffffffffffffffffffffff1673ffffffffffffffffffffffffffffffffffffffff16815260200190815260200160002060030160009054906101000a90505050610958565b5b5b5050565b600160009054906101000a900473ffffffffffffffffffffffffffffffffffffffff1681565b60056020528060005260406000206000915090508060000180546109a690611818565b80601f01602080910402602001604051908101604052809291908181526020018280546109d290611818565b8015610a1f5780601f106109f457610100808354040283529160200191610a1f565b820191906000526020600020905b815481529060010190602001808311610a0257829003601f168201915b505050505090806001018054610a3490611818565b80601f0160208091040260200160405190810160405280929190818152602001828054610a6090611818565b8015610aad5780601f10610a8257610100808354040283529160200191610aad565b820191906000526020600020905b815481529060010190602001808311610a9057829003601f168201915b505050505090806002018054610ac290611818565b80601f0160208091040260200160405190810160405280929190818152602001828054610aee90611818565b8015610b3b5780601f10610b1057610100808354040283529160200191610b3b565b820191906000526020600020905b815481529060010190602001808311610b1e57829003601f168201915b5050505050908060030160009054906101000a900460ff16908060030160019054906101000a900460ff16908060040154905086565b600081604051602001610b8491906118fc565b6040516020818303038152906040528051906020012083604051602001610bab91906118fc565b6040516020818303038152906040528051906020012014905092915050565b60005b600480549050811015610d0a57610cec6005600060048481548110610bf557610bf4611849565b5b9060005260206000200160009054906101000a900473ffffffffffffffffffffffffffffffffffffffff1673ffffffffffffffffffffffffffffffffffffffff1673ffffffffffffffffffffffffffffffffffffffff1681526020019081526020016000206001018054610c6890611818565b80601f0160208091040260200160405190810160405280929190818152602001828054610c9490611818565b8015610ce15780601f10610cb657610100808354040283529160200191610ce1565b820191906000526020600020905b815481529060010190602001808311610cc457829003601f168201915b505050505084610b71565b15610cf75750610e86565b8080610d0290611878565b915050610bcd565b506040518060c001604052808481526020018381526020018281526020016000151581526020016000151581526020016000815250600560003373ffffffffffffffffffffffffffffffffffffffff1673ffffffffffffffffffffffffffffffffffffffff1681526020019081526020016000206000820151816000019080519060200190610d9a929190610fe1565b506020820151816001019080519060200190610db7929190610fe1565b506040820151816002019080519060200190610dd4929190610fe1565b5060608201518160030160006101000a81548160ff02191690831515021790555060808201518160030160016101000a81548160ff02191690831515021790555060a082015181600401559050506004339080600181540180825580915050600190039060005260206000200160009091909190916101000a81548173ffffffffffffffffffffffffffffffffffffffff021916908373ffffffffffffffffffffffffffffffffffffffff1602179055505b505050565b600160009054906101000a900473ffffffffffffffffffffffffffffffffffffffff1673ffffffffffffffffffffffffffffffffffffffff163373ffffffffffffffffffffffffffffffffffffffff1614610ee557600080fd5b6019821115610fd9576040518060c0016040528086815260200185815260200184815260200183815260200182815260200160008152506006600060035481526020019081526020016000206000820151816000019080519060200190610f4d929190610fe1565b506020820151816001019080519060200190610f6a929190610fe1565b506040820151816002019080519060200190610f87929190610fe1565b50606082015181600301556080820151816004019080519060200190610fae929190610fe1565b5060a0820151816005015590505060036000815480929190610fcf90611878565b9190505550610fda565b5b5050505050565b828054610fed90611818565b90600052602060002090601f01602090048101928261100f5760008555611056565b82601f1061102857805160ff1916838001178555611056565b82800160010185558215611056579182015b8281111561105557825182559160200191906001019061103a565b5b5090506110639190611067565b5090565b5b80821115611080576000816000905550600101611068565b5090565b6000604051905090565b600080fd5b600080fd5b6000819050919050565b6110ab81611098565b81146110b657600080fd5b50565b6000813590506110c8816110a2565b92915050565b6000602082840312156110e4576110e361108e565b5b60006110f2848285016110b9565b91505092915050565b61110481611098565b82525050565b600060208201905061111f60008301846110fb565b92915050565b600073ffffffffffffffffffffffffffffffffffffffff82169050919050565b600061115082611125565b9050919050565b61116081611145565b811461116b57600080fd5b50565b60008135905061117d81611157565b92915050565b6000602082840312156111995761119861108e565b5b60006111a78482850161116e565b91505092915050565b600081519050919050565b600082825260208201905092915050565b60005b838110156111ea5780820151818401526020810190506111cf565b838111156111f9576000848401525b50505050565b6000601f19601f8301169050919050565b600061121b826111b0565b61122581856111bb565b93506112358185602086016111cc565b61123e816111ff565b840191505092915050565b600060c08201905081810360008301526112638189611210565b905081810360208301526112778188611210565b9050818103604083015261128b8187611210565b905061129a60608301866110fb565b81810360808301526112ac8185611210565b90506112bb60a08301846110fb565b979650505050505050565b600080fd5b600080fd5b7f4e487b7100000000000000000000000000000000000000000000000000000000600052604160045260246000fd5b611308826111ff565b810181811067ffffffffffffffff82111715611327576113266112d0565b5b80604052505050565b600061133a611084565b905061134682826112ff565b919050565b600067ffffffffffffffff821115611366576113656112d0565b5b61136f826111ff565b9050602081019050919050565b82818337600083830152505050565b600061139e6113998461134b565b611330565b9050828152602081018484840111156113ba576113b96112cb565b5b6113c584828561137c565b509392505050565b600082601f8301126113e2576113e16112c6565b5b81356113f284826020860161138b565b91505092915050565b6000602082840312156114115761141061108e565b5b600082013567ffffffffffffffff81111561142f5761142e611093565b5b61143b848285016113cd565b91505092915050565b6000806040838503121561145b5761145a61108e565b5b6000611469858286016110b9565b925050602061147a858286016110b9565b9150509250929050565b61148d81611145565b82525050565b60006020820190506114a86000830184611484565b92915050565b60008115159050919050565b6114c3816114ae565b82525050565b600060c08201905081810360008301526114e38189611210565b905081810360208301526114f78188611210565b9050818103604083015261150b8187611210565b905061151a60608301866114ba565b61152760808301856114ba565b61153460a08301846110fb565b979650505050505050565b600080604083850312156115565761155561108e565b5b600083013567ffffffffffffffff81111561157457611573611093565b5b611580858286016113cd565b925050602083013567ffffffffffffffff8111156115a1576115a0611093565b5b6115ad858286016113cd565b9150509250929050565b60006020820190506115cc60008301846114ba565b92915050565b6000806000606084860312156115eb576115ea61108e565b5b600084013567ffffffffffffffff81111561160957611608611093565b5b611615868287016113cd565b935050602084013567ffffffffffffffff81111561163657611635611093565b5b611642868287016113cd565b925050604084013567ffffffffffffffff81111561166357611662611093565b5b61166f868287016113cd565b9150509250925092565b600080600080600060a086880312156116955761169461108e565b5b600086013567ffffffffffffffff8111156116b3576116b2611093565b5b6116bf888289016113cd565b955050602086013567ffffffffffffffff8111156116e0576116df611093565b5b6116ec888289016113cd565b945050604086013567ffffffffffffffff81111561170d5761170c611093565b5b611719888289016113cd565b935050606061172a888289016110b9565b925050608086013567ffffffffffffffff81111561174b5761174a611093565b5b611757888289016113cd565b9150509295509295909350565b7f4e487b7100000000000000000000000000000000000000000000000000000000600052601160045260246000fd5b600061179e82611098565b91506117a983611098565b9250827fffffffffffffffffffffffffffffffffffffffffffffffffffffffffffffffff038211156117de576117dd611764565b5b828201905092915050565b7f4e487b7100000000000000000000000000000000000000000000000000000000600052602260045260246000fd5b6000600282049050600182168061183057607f821691505b602082108103611843576118426117e9565b5b50919050565b7f4e487b7100000000000000000000000000000000000000000000000000000000600052603260045260246000fd5b600061188382611098565b91507fffffffffffffffffffffffffffffffffffffffffffffffffffffffffffffffff82036118b5576118b4611764565b5b600182019050919050565b600081905092915050565b60006118d6826111b0565b6118e081856118c0565b93506118f08185602086016111cc565b80840191505092915050565b600061190882846118cb565b91508190509291505056fea264697066735822122037f7de0951c94e431a62d279ac292b0678d89be8029960f083a379db2a15721364736f6c634300080e0033",
    "linkReferences": {},
    "deployedLinkReferences": {}
}